:020000040800F2
:1000000060080020790400089D0400089F0400088F
:10001000A1040008A3040008A504000800000000D3
:10002000000000000000000000000000A70400081D
:10003000A904000800000000AB040008A10B0008A0
:10004000AF040008AF040008AF040008AF040008C4
:10005000AF040008AF040008AF040008AF040008B4
:10006000AF040008AF040008AF040008AF040008A4
:10007000AF040008AF040008AF040008AF04000894
:10008000AF040008AF040008AF040008AF04000884
:10009000AF040008AF040008AF040008AF04000874
:1000A000AF040008F10C0008AF040008E50B0008DD
:1000B000090D0008190E0008450F0008AF040008DC
:1000C000AF040008AF040008AF040008AF04000844
:1000D000AF040008AF040008AF040008AF04000834
:1000E000AF040008AF040008AF040008DFF80CD02C
:1000F00000F0E8F9004800472511000860080020DA
:100100000120D14908700020D0490870D0490870FA
:100110004FF48070CF4948614000486180204861B9
:10012000CD48008840F00100CB49088000BFC64898
:1001300000780128FBD07047C548007800284AD1D4
:100140004FF48070C34948610120C1490870BF481D
:100150000078401CBD49087008460078512806D137
:100160004FF40070BB494861802008614BE0B749FB
:100170000978481EC11700EB5171C910A0EBC101ED
:10018000B64A1170B1490978481EC11700EB517188
:10019000C1F3C701B24A1170B24811460978405CF8
:1001A000B1490870AD48017880200841AF49087016
:1001B000AD48007809780840AD49087008460078D5
:1001C00020B14FF40070A34908611CE04FF40070A7
:1001D000A049486117E09D48007851280CD19E48FD
:1001E000008820F001009C49088000209649087092
:1001F00080209849486106E04FF480709549086175
:100200000020934908707047014605291ED006DC7E
:10021000052927D2DFE801F010121416180008296A
:100220001AD004DC062913D007291BD112E00929B2
:1002300014D0FF2916D113E03F2015E0062013E06B
:100240005B2011E04F200FE066200DE06D200BE0F9
:100250007D2009E0072007E07F2005E06F2003E014
:10026000002000BF002000BF00BF704770B52025F0
:10027000002405E00020FFF7C7FF7A490855641CF9
:100280000A2CF7DB774845704FF4B471724800F0E0
:10029000EFFE7148008820F001006F4908800020BF
:1002A0006D4924310880AFF26F1208216A4800F0CE
:1002B0001BF900236F220621664800F0B9FA0023DB
:1002C0006F220521634800F0B3FA00236F22042156
:1002D000604800F0ADFA00236F2203215D4800F072
:1002E000A7FA00236F2202215A4800F0A1FA002346
:1002F0006F220121574800F09BFA00236F22194614
:10030000544800F095FA00236F220921514800F06B
:100310008FFA00236F2208214E4800F089FA00234B
:100320006F2207214B4800F083FA00236F2205213A
:10033000504800F07DFA00236F2204214D4800F060
:1003400077FA002040490870FFF7DAFE70BD2DE90A
:10035000F04305460C4601203B4908700A2094FBF7
:10036000F0F000F0FF080A2094FBF0F100FB1140D0
:1003700000F0FF09C5F105004006060E4046FFF7F4
:1003800043FF0746374887554846FFF73DFF074676
:100390003449701C0F54BDE8F0830146C1F10502D9
:1003A0005000304A125C42F080022E4B1A547047C3
:1003B0000146C1F1050250002A4A125C22F0800277
:1003C000284B1A547047274949780122824011432B
:1003D000244A517070472349497801228240914351
:1003E000204A51707047012806D002280BD00328FC
:1003F00011D004281ED116E020211E4A14321160AB
:10040000102111601DE020211A4A143211601021C0
:10041000121F116015E02021164A103211601021C0
:10042000121D11600DE02021124A103211601021BE
:10043000116006E020210F4A143211601021116072
:1004400000BF00BF7047000006000020040000202D
:100450000500002000100140002C01400700002092
:100460000800002050040020090000200B0000209C
:100470000A000020000801400D488047DFF83400E2
:10048000016841F4E0210160BFF34F8FDFF82800DD
:10049000DFF8281001600A4800477047FEE7FEE7D2
:1004A000FEE7FEE7FEE7FEE7FEE7FEE7FEE7FEE724
:1004B0009B04000824ED00E00CED00E00003FA05C9
:1004C000ED000008064C074D06E0E06840F001032F
:1004D00094E8070098471034AC42F6D3FFF70AFEC1
:1004E00044120008641200082DE9F041DFF8C4C08E
:1004F000314B604503D19C6944F400649C614FF02A
:100500008046B04203D1DC6944F00104DC612B4D2C
:10051000A84203D1DC6944F00204DC61284FB842F0
:1005200003D1DC6944F00404DC61838943F00103F6
:1005300083810F2900D90F21224C4FF0E023604521
:100540000CD12261DFF880804FEA011C88F800C0DE
:10055000D3F800C14CF0007CC3F800C1B0420DD10B
:100560006261DFF864C00E010CF1030C8CF80060CE
:10057000D3F8006146F08056C3F80061A8420AD162
:10058000A261114E0D01361D3570D3F8005145F0B2
:100590000055C3F80051B8420AD1E26108010A4986
:1005A000491D0870D3F8000140F08040C3F80001F5
:1005B000BDE8F081002C0140001002400004004022
:1005C000000800400C00002019E400E070B5194C50
:1005D0008320206000256560A560174860600120C9
:1005E00000F048F861680843606014490D600868CD
:1005F00040F002000860206840F4803020602068ED
:100600008003FCD5206840F0807020602068800165
:10061000FCD5606820F003006060606840F0020074
:100620006060606840F480006060086840F010001E
:10063000086070BD0010024000841D0000200240D0
:1006400000487047001BB7000048704700A24A04EA
:100650000549064A884202D00549884201D1104620
:100660007047104670470000002C014000A24A0469
:1006700000340140012804D0B0F5807F03DD012162
:1006800002E000202CE00021802801DD012200E0B2
:1006900000220A44402801DD012100E000210A4433
:1006A000102801DD012100E000210A44082801DDB5
:1006B000012100E000210A44042801DD012100E0BD
:1006C00000210A44022801DD012100E0002111443B
:1006D000012801DD012000E000200844C01D0001C8
:1006E000702800D10020704710B5402000F04AFA71
:1006F00000F0FCFC4848806820F001004649886012
:10070000002407E02146454800F078FD444941F8BF
:100710002400641C402CF5DB4148806C4149884230
:1007200003DA00204049086015E03F480068401C9B
:100730003D490860084600680F280CDD3B4800680A
:10074000401C3A490860084601780120FFF7FFFD88
:100750000020354908603248006D3249884203DA8A
:1007600000203149486015E02F484068401C2E4960
:100770004860084640680F280CDD2C484068401C43
:100780002A494860084601790220FFF7E0FD002071
:10079000254948602248C06D2249884203DA00207A
:1007A0002149886015E020488068401C1E49886007
:1007B000084680680F280CDD1C488068401C1B49D7
:1007C00088600846017A0320FFF7C1FD0020164922
:1007D00088601348006E1349884203DA00201249EA
:1007E000C86015E01048C068401C0F49C860084642
:1007F000C0680F280CDD0D48C068401C0B49C8605C
:100800000846017B0420FFF7A2FD00200649C860CE
:10081000FFF776FC10BD000000000240C00300207E
:10082000B00200208096980040040020B003002011
:10083000F0B53B4E3B4CB04203D1A66946F00406EE
:10084000A661394EB04203D1A66946F00806A661FA
:10085000364EB04203D1A66946F01006A661344E6A
:10086000B04203D1A66946F02006A661314EB042DF
:1008700003D1A66946F04006A66100240F2900DDD9
:100880000124692A01D0492A02D1032B00D1012475
:10089000032B00DD0124692A06D0492A04D06F2ADF
:1008A00002D04F2A00D00124692A01D0492A00D160
:1008B00000256F2A01D04F2A00D1012503260222EC
:1008C000082915DA076802EB810206FA02FC27EA1A
:1008D0000C070760076893401F43076002688900A0
:1008E0008E40B243026002688D402A43026015E0E8
:1008F0000839476802EB810206FA02FC27EA0C0776
:100900004760476893401F434760426889008E40B4
:10091000B243426042688D402A4342602046F0BDA7
:100920000008014000100240000C0140001001408E
:1009300000140140001801400F4A536943F00103BD
:100940005361936943F4007393610C4A136843F451
:1009500080731360094B0A4A4433136151610021CB
:100960009160916800F001004FF4565343EA401043
:1009700001439160704700000010024008240140CC
:100980000000024038B5836843F4801383608368B5
:1009900023F460238360836801F0070443EA44433F
:1009A0008360124C002914D0012914D0022914D0DC
:1009B000032914D00E4C052915D0FF21FF2907D09B
:1009C000204600F081F80090BDF800004008208724
:1009D00038BD0121F2E70221F0E70321EEE74FF0F5
:1009E00080440221EAE70421E8E70000002C0140EE
:1009F000000800402DE9F04105460E462F493048D9
:100A00008D4203D1816941F4007181612D498D428C
:100A100003D1816941F4806181610024FFF710FEF8
:100A20000746FFF711FEB0FBF7F27000B0FBF2F0E3
:100A3000032801D8032120E00F2802D801240F2128
:100A40001BE01B2802D802241B2116E0392802D8FB
:100A50000324392111E0532802D8042453210CE047
:100A60006F2802D805246F2107E08F2802D80624BA
:100A70008F2102E0072440F2DF1144EAC40040EA7B
:100A8000841040EA442040EA043040EAC43040EA9E
:100A9000844040EA4450E86040EA046040EAC460B0
:100AA0002861E86A20F47000E8621931514348086F
:100AB000A96841F00101A960BDE8F081002401406E
:100AC00000100240002801402DE9F0410D46044687
:100AD0001146204600F0CCFA032707230626681E9D
:100AE0004FF0040C012D01D0022D12D1218BC20038
:100AF00007FA02F291432183228B0CEBC00103FA27
:100B000001F822EA08022283228B06FA01F10A4345
:100B10002283032D01D0042D0FD1A18BED1EEA00FD
:100B20009740B943A183A28B0CEBC5018B409A433C
:100B3000A283A28B8E403243A283228C012101EB3F
:100B4000800301FA03F39A432284228C80008140BF
:100B50000A4322840648844205D1B4F8440040F494
:100B60000040A4F84400A08D401C80B2BDE8F08194
:100B7000002C0140426B22F01F024263426B0A4389
:100B80004263704705498A6822F001028A60C860A2
:100B9000886840F001008860704700000000024053
:100BA0000148006800470000AC0000204FF0E02141
:100BB0000A6942F004020A616FF07F42904204D356
:100BC0000A6922F004020A61C00848617047000007
:100BD000024A11600249000108707047AC00002011
:100BE00023ED00E070B53B4908883B4C82073B4D44
:100BF000A4F12006A4F1800018D50A8822F0020290
:100C00000A800178012901D1006A8047288881077C
:100C1000334802D40088208003E000882188401AED
:100C20003080288880F00200288070BD0A88520732
:100C300018D50A8822F004020A804178012901D1DE
:100C4000406A804728888106264802D40088608050
:100C500003E000886188401A7080288880F02000B6
:100C6000288070BD0A88120718D50A8822F0080269
:100C70000A808178032901D1806A8047288881050C
:100C8000194802D40088A08003E00088A188401A97
:100C9000B080288880F40070288070BD0A88D20651
:100CA000FBD50A8822F010020A80C178012901D1FF
:100CB000C06A8047288881040C4802D40088E080FC
:100CC00003E00088E188401AF080288880F4005012
:100CD000288070BD102C01408C000020202C014089
:100CE000342C0140382C01403C2C0140402C014068
:100CF0000348018821F00101018002480069004792
:100D0000102C01400C00002070B54FF08045288A5F
:100D1000C10740480AD0A989C90707D0298A21F00C
:100D2000010129824069BDE870400047298A394C99
:100D30008A07384904F18804A4F12006497916D5B8
:100D40002A8A22F002022A82012901D1006B8047FF
:100D5000288C800702D4A88E208003E0A88E2188EA
:100D6000401A3080288C80F00200288470BD2A8AC6
:100D7000520716D52A8A22F004022A82012901D1BB
:100D8000406B8047288C800602D4288F608003E067
:100D9000288F6188401A7080288C80F02000288479
:100DA00070BD298A090717D5298A21F008012982EF
:100DB0008179012901D1806B8047288C800502D47C
:100DC000A88FA08003E0A88FA188401AB080288C4B
:100DD00080F40070288470BD298AC906FBD5298A51
:100DE00021F010012982C179012901D1C06B80470E
:100DF000288C800403D4B5F84000E08004E0B5F806
:100E00004000E188401AF080288C80F4005028844B
:100E100070BD00000C00002070B543490888C2076F
:100E200042480BD00A1F1288D20707D00A8822F046
:100E300001020A808069BDE8704000470A883B4C87
:100E40003B4D04F190049207A4F1200618D50A88BE
:100E500022F002020A80017A012901D1006C804748
:100E600028888107334802D40088208003E0008866
:100E70002188401A3080288880F00200288070BDC8
:100E80000A88520718D50A8822F004020A80417A9B
:100E9000012901D1406C804728888106264802D468
:100EA0000088608003E000886188401A708028888C
:100EB00080F02000288070BD0A88120718D50A88A3
:100EC00022F008020A80817A012901D1806C8047D2
:100ED00028888105194802D40088A08003E0008892
:100EE000A188401AB080288880F40070288070BDE6
:100EF0000A88D206FBD50A8822F010020A80C17A3D
:100F0000012901D1C06C8047288881040C4802D493
:100F10000088E08003E00088E188401AF08028889B
:100F200080F40050288070BD100400400C000020A8
:100F30002004004034040040380400403C040040D9
:100F40004004004070B543490888C20742480BD0AE
:100F50000A1F1288D20707D00A8822F001020A80ED
:100F6000C069BDE8704000470A883B4C3B4D04F126
:100F700098049207A4F1200618D50A8822F00202EC
:100F80000A80017B012901D1006D804728888107F3
:100F9000334802D40088208003E000882188401A6A
:100FA0003080288880F00200288070BD0A885207AF
:100FB00018D50A8822F004020A80417B012901D158
:100FC000406D804728888106264802D400886080CA
:100FD00003E000886188401A7080288880F0200033
:100FE000288070BD0A88120718D50A8822F00802E6
:100FF0000A80817B012901D1806D80472888810585
:10100000194802D40088A08003E00088A188401A13
:10101000B080288880F40070288070BD0A88D206CD
:10102000FBD50A8822F010020A80C17B012901D178
:10103000C06D8047288881040C4802D40088E08075
:1010400003E00088E188401AF080288880F400508E
:10105000288070BD100800400C00002020080040CF
:1010600034080040380800403C0800404008004078
:1010700070B504460D46194919488C4203D181695F
:1010800041F400618161B4F1804F03D1C16941F045
:101090000101C16113498C4203D1C16941F00201D0
:1010A000C16111498C4203D1C16941F00401C161A0
:1010B000FFF7CAFA06462046FFF7CAFAB6FBF0F079
:1010C000B5FBF0F0010C4A1CB0FBF2F02185401E8C
:1010D000A085A0841120208070BD0000002C01405C
:1010E000001002400004004000080040044801686D
:1010F0008907FCD5416841F002014160704700005A
:101100000000024002E008C8121F08C1002AFAD1FC
:1011100070477047002001E001C1121F002AFBD177
:1011200070470000002004E00021214A42F820100E
:10113000401C0428F8DBFFF749FA1E48FFF736FD8C
:101140001D490A20FFF744FD4FF0E020006940F000
:1011500001004FF0E02108610846006940F00200FC
:10116000086148211548FFF745FC02211348FFF7A5
:1011700001FDE12203211148FFF704FC1049002082
:10118000FFF7DAFBFFF772F800210120FFF7DFF825
:1011900000210220FFF7DBF800210320FFF7D7F83A
:1011A00000210420FFF7D3F8FEF7AAFF00BFFEE7F7
:1011B000B0030020407E0500E9060008002401403D
:1011C000C00300202DE9F04F4FF000064FF000045F
:1011D000402E0FD006FB01F505F03F0532F9153022
:1011E00030F9168003FB08F74FEA27473C4406F125
:1011F0000106EDE72046BDE8F04F70472DE9F04FBE
:1012000004460D460D4AFFF7DDFF064620462946F7
:101210000B4AFFF7D7FF014630464FEA60004FEA1E
:10122000610100FB00F001FB01F14FEA60004FEAB1
:1012300061010844BDE8F04F7047000064120008E7
:10124000E41200086413000800000020B000000051
:101250000411000814140008B0000020B0070000BA
:1012600014110008FF7F627F8A7D7D7A4276E370E9
:101270006E6AF262825A34511D47573CFC30282571
:10128000F9188C0C000074F307E7D8DA04CFA9C36F
:10129000E3B8CCAE7EA50E9D92951D8FBE89838549
:1012A00076829E8000809E8076828385BE891D8F97
:1012B00092950E9D7EA5CCAEE3B8A9C304CFD8DA33
:1012C00007E774F300008C0CF9182825FC30573C14
:1012D0001D473451825AF2626E6AE37042767D7A1B
:1012E0008A7D627F00008C0CF9182825FC30573C61
:1012F0001D473451825AF2626E6AE37042767D7AFB
:101300008A7D627FFF7F627F8A7D7D7A4276E3708D
:101310006E6AF262825A34511D47573CFC302825D0
:10132000F9188C0C000074F307E7D8DA04CFA9C3CE
:10133000E3B8CCAE7EA50E9D92951D8FBE898385A8
:1013400076829E8000809E8076828385BE891D8FF6
:1013500092950E9D7EA5CCAEE3B8A9C304CFD8DA92
:1013600007E774F300000000000000000000000028
:10137000000000000000000000000000000000006D
:10138000000000000000000000000000000000005D
:10139000000000000000000000000000000000004D
:1013A000000000000000000000000000000000003D
:1013B000000000000000000000000000000000002D
:1013C000000000000000000000000000000000001D
:1013D000000000000000000000000000000000000D
:1013E00000000000000000000000000000000000FD
:1013F00000000000000000000000000000000000ED
:1014000000000000000000000000000000000000DC
:0414100000000000D8
:04000005080000ED02
:00000001FF
